{
  "contractName": "Stock",
  "abi": [
    {
      "inputs": [],
      "payable": false,
      "stateMutability": "nonpayable",
      "type": "constructor"
    },
    {
      "constant": false,
      "inputs": [
        {
          "internalType": "bytes4",
          "name": "symbol",
          "type": "bytes4"
        },
        {
          "internalType": "uint256",
          "name": "price",
          "type": "uint256"
        },
        {
          "internalType": "uint256",
          "name": "volume",
          "type": "uint256"
        }
      ],
      "name": "setStock",
      "outputs": [
        {
          "internalType": "uint256",
          "name": "",
          "type": "uint256"
        }
      ],
      "payable": false,
      "stateMutability": "nonpayable",
      "type": "function"
    },
    {
      "constant": true,
      "inputs": [
        {
          "internalType": "bytes4",
          "name": "symbol",
          "type": "bytes4"
        }
      ],
      "name": "getStockPrice",
      "outputs": [
        {
          "internalType": "uint256",
          "name": "",
          "type": "uint256"
        }
      ],
      "payable": false,
      "stateMutability": "view",
      "type": "function"
    },
    {
      "constant": true,
      "inputs": [
        {
          "internalType": "bytes4",
          "name": "symbol",
          "type": "bytes4"
        }
      ],
      "name": "getStockVolume",
      "outputs": [
        {
          "internalType": "uint256",
          "name": "",
          "type": "uint256"
        }
      ],
      "payable": false,
      "stateMutability": "view",
      "type": "function"
    }
  ],
  "bytecode": "0x608060405234801561001057600080fd5b5033600160006101000a81548173ffffffffffffffffffffffffffffffffffffffff021916908373ffffffffffffffffffffffffffffffffffffffff16021790555061031a806100616000396000f3fe608060405234801561001057600080fd5b50600436106100415760003560e01c80630b1dc17c146100465780638604e3db146100a7578063945aaa4414610108575b600080fd5b6100916004803603602081101561005c57600080fd5b8101908080357bffffffffffffffffffffffffffffffffffffffffffffffffffffffff1916906020019092919050505061017d565b6040518082815260200191505060405180910390f35b6100f2600480360360208110156100bd57600080fd5b8101908080357bffffffffffffffffffffffffffffffffffffffffffffffffffffffff191690602001909291905050506101da565b6040518082815260200191505060405180910390f35b6101676004803603606081101561011e57600080fd5b8101908080357bffffffffffffffffffffffffffffffffffffffffffffffffffffffff191690602001909291908035906020019092919080359060200190929190505050610237565b6040518082815260200191505060405180910390f35b6000806000837bffffffffffffffffffffffffffffffffffffffffffffffffffffffff19167bffffffffffffffffffffffffffffffffffffffffffffffffffffffff19168152602001908152602001600020600101549050919050565b6000806000837bffffffffffffffffffffffffffffffffffffffffffffffffffffffff19167bffffffffffffffffffffffffffffffffffffffffffffffffffffffff19168152602001908152602001600020600001549050919050565b60006102416102cb565b604051806040016040528085815260200184815250905080600080877bffffffffffffffffffffffffffffffffffffffffffffffffffffffff19167bffffffffffffffffffffffffffffffffffffffffffffffffffffffff191681526020019081526020016000206000820151816000015560208201518160010155905050839150509392505050565b60405180604001604052806000815260200160008152509056fea265627a7a72315820bbec47d3614ac554d974bd759f8d633f7810a1449f31ef89f5a65d58d386509864736f6c634300050c0032",
  "source": "pragma solidity ^0.5.0;\n\ncontract Stock {\n/// quote structure\n    struct stock {\n        uint price;\n        uint volume;\n    }\n\n\n    \n    /// quotes by symbol\n    mapping( bytes4 => stock) stockQuote;\n    \n    /// Contract owner\n    address oracleOwner;\n    \n    constructor () public {\n       oracleOwner = msg.sender;\n    }    \n   \n\n/// Set the value of a stock \n    function setStock(bytes4 symbol, uint price, uint volume) public returns (uint){\n        stock memory newStock = stock(price,volume);\n        stockQuote[symbol]= newStock;\n        return price;\n    }\n    \n    /// Get the value of a stock \n    function getStockPrice(bytes4 symbol) public view returns (uint) {\n        return stockQuote[symbol].price;\n        \n    }\n    \n    /// Get the value of volume traded for a stock \n    function getStockVolume(bytes4 symbol) public view returns (uint) {\n        return stockQuote[symbol].volume;\n        \n    }\n}",
  "sourcePath": "/Users/jamshed/Development/gbc/DESIGN PATTERNS FOR BLOCKCHAIN - BCDV 1011 - 100/assignments/assignment-oracle/contracts/Stock.sol",
  "compiler": {
    "name": "solc",
    "version": "0.5.12+commit.7709ece9.Emscripten.clang"
  },
  "schemaVersion": "3.0.19",
  "updatedAt": "2020-02-08T19:47:56.038Z",
  "networkType": "ethereum",
  "devdoc": {
    "methods": {}
  },
  "userdoc": {
    "methods": {
      "getStockPrice(bytes4)": {
        "notice": "Get the value of a stock "
      },
      "getStockVolume(bytes4)": {
        "notice": "Get the value of volume traded for a stock "
      },
      "setStock(bytes4,uint256,uint256)": {
        "notice": "Set the value of a stock "
      }
    }
  }
}